{
  "transactions": [
    {
      "hash": "0x8f60ee1e0414b7a2061c49b57771c999d216a9c923fd4f95a336077ed2ce2823",
      "transactionType": "CALL",
      "contractName": null,
      "contractAddress": "0xfeb871581c2ab2e1eee6f7ddc7e6246cfa087a23",
      "function": "create((address,uint256,address,address,address))",
      "arguments": [
        "(0x2D99665900dDeB4db36400Bb88B9C9813E95eB32, 0, 0x0000000000000000000000000000000000000000, 0x0000000000000000000000000000000000000000, 0x0000000000000000000000000000000000000000)"
      ],
      "transaction": {
        "from": "0xa7eccdb9be08178f896c26b7bbd8c3d4e844d9ba",
        "to": "0xfeb871581c2ab2e1eee6f7ddc7e6246cfa087a23",
        "gas": "0x4c894",
        "value": "0x0",
        "input": "0x61ca1df20000000000000000000000002d99665900ddeb4db36400bb88b9c9813e95eb320000000000000000000000000000000000000000000000000000000000000000000000000000000000000000000000000000000000000000000000000000000000000000000000000000000000000000000000000000000000000000000000000000000000000000000000000000000000000000000000000000000000000000",
        "nonce": "0x1489",
        "chainId": "0x1"
      },
      "additionalContracts": [
        {
          "transactionType": "CREATE2",
          "address": "0x049b578496fd092e2c0f3e537869fdbfd5fef379",
          "initCode": "0x3d602d80600a3d3981f3363d3d373d3d3d363d73e7b6dafe6e5e3d6f7fa3ed7624633e4518b1bc545af43d82803e903d91602b57fd5bf3"
        }
      ],
      "isFixedGasLimit": false
    }
  ],
  "receipts": [
    {
      "status": "0x1",
      "cumulativeGasUsed": "0x87c8b2",
      "logs": [
        {
          "address": "0x049b578496fd092e2c0f3e537869fdbfd5fef379",
          "topics": [
            "0x108cccaed2dfffe466544dfa3900b2fa5e707bb00ded59de6a950479b923216f"
          ],
          "data": "0x0000000000000000000000002d99665900ddeb4db36400bb88b9c9813e95eb32",
          "blockHash": "0xa4bc5caad38c6805eb1de2c6432d0b36b8c728061b77025678c548e67e39f509",
          "blockNumber": "0x1537667",
          "transactionHash": "0x8f60ee1e0414b7a2061c49b57771c999d216a9c923fd4f95a336077ed2ce2823",
          "transactionIndex": "0x46",
          "logIndex": "0xe7",
          "removed": false
        },
        {
          "address": "0x049b578496fd092e2c0f3e537869fdbfd5fef379",
          "topics": [
            "0x2f0d0ace1d699b471d7b39522b5c8aae053bce1b422b7a4fe8f09bd6562a4b74"
          ],
          "data": "0x0000000000000000000000000000000000000000000000000000000000000000",
          "blockHash": "0xa4bc5caad38c6805eb1de2c6432d0b36b8c728061b77025678c548e67e39f509",
          "blockNumber": "0x1537667",
          "transactionHash": "0x8f60ee1e0414b7a2061c49b57771c999d216a9c923fd4f95a336077ed2ce2823",
          "transactionIndex": "0x46",
          "logIndex": "0xe8",
          "removed": false
        },
        {
          "address": "0x049b578496fd092e2c0f3e537869fdbfd5fef379",
          "topics": [
            "0xc7f505b2f371ae2175ee4913f4499e1f2633a7b5936321eed1cdaeb6115181d2"
          ],
          "data": "0x0000000000000000000000000000000000000000000000000000000000000001",
          "blockHash": "0xa4bc5caad38c6805eb1de2c6432d0b36b8c728061b77025678c548e67e39f509",
          "blockNumber": "0x1537667",
          "transactionHash": "0x8f60ee1e0414b7a2061c49b57771c999d216a9c923fd4f95a336077ed2ce2823",
          "transactionIndex": "0x46",
          "logIndex": "0xe9",
          "removed": false
        },
        {
          "address": "0xfeb871581c2ab2e1eee6f7ddc7e6246cfa087a23",
          "topics": [
            "0xb919910dcefbf753bfd926ab3b1d3f85d877190c3d01ba1bd585047b99b99f0b",
            "0x000000000000000000000000049b578496fd092e2c0f3e537869fdbfd5fef379"
          ],
          "data": "0x",
          "blockHash": "0xa4bc5caad38c6805eb1de2c6432d0b36b8c728061b77025678c548e67e39f509",
          "blockNumber": "0x1537667",
          "transactionHash": "0x8f60ee1e0414b7a2061c49b57771c999d216a9c923fd4f95a336077ed2ce2823",
          "transactionIndex": "0x46",
          "logIndex": "0xea",
          "removed": false
        }
      ],
      "logsBloom": "0x08000000000000000000000000000000200000000120000000000000000000000000000000000010000000200000000000002000000000000000000000000000000000000000000000000000000000000000000010000000000000000000000000000000000000000000000004000000000000008010000000000000000000000000000000000000000800000000000000010000001080000000000000000000000000010000000000000000000000000000000000000000000000000800000000000000000000000000000000000000000080000004000000000000000000000000000000000000000080000000000000000000000000400000000000000000",
      "type": "0x2",
      "transactionHash": "0x8f60ee1e0414b7a2061c49b57771c999d216a9c923fd4f95a336077ed2ce2823",
      "transactionIndex": "0x46",
      "blockHash": "0xa4bc5caad38c6805eb1de2c6432d0b36b8c728061b77025678c548e67e39f509",
      "blockNumber": "0x1537667",
      "gasUsed": "0x34552",
      "effectiveGasPrice": "0x98775c45",
      "from": "0xa7eccdb9be08178f896c26b7bbd8c3d4e844d9ba",
      "to": "0xfeb871581c2ab2e1eee6f7ddc7e6246cfa087a23",
      "contractAddress": null
    }
  ],
  "libraries": [],
  "pending": [],
  "returns": {},
  "timestamp": 1744390345,
  "chain": 1,
  "commit": "a5bb92d"
}